:1000000012C019C018C017C044C015C014C013C016
:1000100012C011C010C00FC00EC00DC00CC00BC06C
:100020000AC009C008C011241FBECFE5D4E0DEBF5E
:10003000CDBF41D05DC0E4CF0895089585B78F78D6
:10004000806385BF089585B78F7885BF089585B78C
:100050008F78806685BF0895EFDF85B7806885BF9C
:10006000ECDF8895089585B78F7785BF089508954B
:10007000089521E030E002C0220F331F6A95E2F7B5
:10008000A9014823592381E04217530709F080E072
:1000900008951F920F920FB60F9211248F93C1995A
:1000A00002C0C09B02C088B388B38F910F900FBE6F
:1000B0000F901F90189582B589B788B714BC87E058
:1000C00085BD7894BBDF80E284BB87B388B387B3F8
:1000D00088B388B3C0E0C0DF85B78F7785BFC11113
:1000E00003C0AD9AC1E0F7CF85B38F7585BBF2CF62
:0400F000F894FFCFB2
:00000001FF
