:1000000012C019C018C017C032C015C014C013C028
:1000100012C011C010C00FC00EC00DC00CC00BC06C
:100020000AC009C008C011241FBECFE5D4E0DEBF5E
:10003000CDBF30D048C0E4CF0895089585B78F78FC
:10004000806385BF089585B78F7885BF089585B78C
:100050008F78806685BF0895EFDF85B7806885BF9C
:10006000ECDF8895089585B78F7785BF08951F9237
:100070000F920FB60F9211248F939F9395B380E246
:10008000892785BB14BC9F918F910F900FBE0F9055
:100090001F901895A59A82B5886082BD89B78F7721
:1000A00089BF89B7806489BF88B7806488BF14BC62
:1000B00085B58B7F85BD85B58D7F85BD85B5816017
:0A00C00085BD7894FFCFF894FFCFC0
:00000001FF
