:1000000012C024C023C022C03DC020C01FC01EC0DB
:100010001DC01CC01BC01AC019C018C017C016C014
:1000200015C014C013C011241FBECFE5D4E0DEBF3D
:10003000CDBF10E0A0E6B0E0E0EFF0E002C0059038
:100040000D92A236B107D9F72DD050C0D9CF08955F
:10005000089585B78F78806385BF089585B78F78B9
:1000600085BF089585B78F78806685BF0895EFDFD7
:1000700085B7806885BFECDF8895089585B78F7751
:1000800085BF08951F920F920FB60F9211248F9380
:1000900081E08093600014BC8F910F900FBE0F9091
:1000A0001F901895A59A82B5886082BD89B78F7711
:1000B00089BF89B7806489BF88B7806488BF14BC52
:1000C00085B58B7F85BD85B58D7F85BD85B5816007
:1000D00085BD789490E280916000811101C0FFCFCE
:1000E00085B3892785BB10926000F5CFF894FFCFC8
:0200F00001000D
:00000001FF
