:1000000012C019C018C017C032C015C014C013C028
:1000100012C011C010C00FC00EC00DC00CC00BC06C
:100020000AC009C008C011241FBECFE5D4E0DEBF5E
:10003000CDBF48D061C0E4CF0895089585B78F78CB
:10004000806385BF089585B78F7885BF089585B78C
:100050008F78806685BF0895EFDF85B7806885BF9C
:10006000ECDF8895089585B78F7785BF08951F9237
:100070000F920FB60F9211242F933F934F935F93DC
:100080006F937F938F939F93AF93BF93EF93FF9360
:1000900085B78F7785BF95B380E2892785BB14BC70
:1000A000DBDFFF91EF91BF91AF919F918F917F9196
:1000B0006F915F914F913F912F910F900FBE0F90D5
:1000C0001F901895A59A82B5886082BD89B78F77F1
:1000D00089BF89B7806489BF88B7806488BF14BC32
:1000E00085B58B7F85BD85B58D7F85BD85B58160E7
:0C00F00085BD7894A3DFFFCFF894FFCF0C
:00000001FF
