:1000000012C024C023C022C063C020C01FC01EC0B5
:100010001DC01CC01BC01AC019C018C017C016C014
:1000200015C014C013C011241FBECFE5D4E0DEBF3D
:10003000CDBF10E0A0E6B0E0E0E5F2E002C0059040
:100040000D92A236B107D9F770D000C1D9CF08956B
:10005000089508950895089521E030E002C0220F28
:10006000331F6A95E2F7A9014823592381E042171B
:10007000530709F080E0089521E030E002C0220F2C
:10008000331F6A95E2F7BC016223732391E0621784
:10009000730709F090E04913FECF0895089585B7DE
:1000A0008F78806385BF089585B78F7885BF089561
:1000B00085B78F78806685BF0895C9DF85B780686A
:1000C00085BFC6DF8895089585B78F7785BF08956A
:1000D0001F920F920FB60F9211242F933F934F93BD
:1000E0005F936F937F938F939F93AF93BF93EF93A0
:1000F000FF9384B590E0D2DF81E08093600088B701
:1001000066E070E090E0A6DFFF91EF91BF91AF91C4
:100110009F918F917F916F915F914F913F912F911F
:100120000F900FBE0F901F90189584B365E070E09C
:1001300090E090DF84B341E065E070E090E09CDF08
:1001400085B365E070E090E084DF83E08A95F1F7A5
:10015000000082B563E070E090E07CDF85B365E08D
:1001600070E090E077DF93E09A95F1F7000089B7AF
:1001700067E070E090E06DDF89B740E067E070E035
:1001800090E07ADF85B365E070E090E062DF83E0C5
:100190008A95F1F7000089B766E070E090E05ADFD9
:1001A00089B741E066E070E090E066DF85B365E026
:1001B00070E090E04FDF93E09A95F1F7000088B788
:1001C00066E070E090E046DF84B590E067DF85B3DD
:1001D00065E070E090E03DDF83E08A95F1F7000094
:1001E00085B562E070E090E034DF85B561E070E0F5
:1001F00090E02FDF85B560E070E090E02BDF789431
:1002000085B365E070E090E025DF93E09A95F1F723
:1002100000004ADF80916000811101C0FFCF4DDFF7
:1002200085B78F7785BF85B365E070E090E013DF19
:1002300089EF90E00197F1F700C0000085B365E019
:1002400070E090E008DF10926000E4CFF894FFCFF8
:020250000100AB
:00000001FF
