:1000000012C021C020C01FC03AC01DC01CC01BC0F0
:100010001AC019C018C017C016C015C014C013C02C
:1000200012C011C010C011241FBECFE5D4E0DEBF46
:10003000CDBF20E0A0E6B0E001C01D92A136B2071E
:10004000E1F735D067C0DCCF0895089585B78F7884
:10005000806385BF089585B78F7885BF089585B77C
:100060008F78806685BF0895EFDF85B7806885BF8C
:10007000ECDF8895089585B78F7785BF08951F9227
:100080000F920FB60F9211248F939F93F89495B30C
:1000900080E2892785BB14BC81E08093600078945E
:1000A0009F918F910F900FBE0F901F90189582B562
:1000B000886082BD02B403FEFDCF10926000A59A55
:1000C000AD9889B78F7789BF09B607FCFDCF89B78F
:1000D000806489BF09B606FEFDCF88B7806488BFFB
:1000E00008B606FEFDCF14BC81E085BD14BC789433
:1000F000ADDF85B78F7785BF809160008823E1F3FE
:1001000085B7806885BF7894889585B78F7785BFD8
:08011000F894F6CFF894FFCF3C
:00000001FF
