:1000000012C019C018C017C016C015C014C013C044
:1000100012C011C010C00FC00EC00DC00CC00BC06C
:100020000AC009C008C011241FBECFE5D4E0DEBF5E
:10003000CDBF43D064C0E4CF0895089508950895D6
:10004000089521E030E002C0220F331F6A95E2F7E5
:10005000A9014823592381E04217530709F080E0A2
:10006000089521E030E002C0220F331F6A95E2F7C5
:10007000BC016223732391E06217730709F090E0DB
:100080004913FECF0895089585B78F78806385BFA3
:10009000089585B78F7885BF089585B78F78806676
:1000A00085BF0895C9DF85B7806885BFC6DF88959D
:1000B000089585B78F7785BF089584B365E070E0B4
:1000C00090E0BDDF85B365E070E090E0B8DF2FE938
:1000D00086E891E0215080409040E1F700C00000A8
:1000E00085B365E070E090E0A9DF2FE38DE093E059
:1000F000215080409040E1F700C00000E3CFF89429
:02010000FFCF2F
:00000001FF
