:1000000012C024C023C022C063C020C01FC01EC0B5
:100010001DC01CC01BC01AC019C018C017C016C014
:1000200015C014C013C011241FBECFE5D4E0DEBF3D
:10003000CDBF10E0A0E6B0E0EEECF1E002C005902C
:100040000D92A236B107D9F770D0BFC0D9CF0895AD
:10005000089508950895089521E030E002C0220F28
:10006000331F6A95E2F7A9014823592381E042171B
:10007000530709F080E0089521E030E002C0220F2C
:10008000331F6A95E2F7BC016223732391E0621784
:10009000730709F090E04913FECF0895089585B7DE
:1000A0008F78806385BF089585B78F7885BF089561
:1000B00085B78F78806685BF0895C9DF85B780686A
:1000C00085BFC6DF8895089585B78F7785BF08956A
:1000D0001F920F920FB60F9211242F933F934F93BD
:1000E0005F936F937F938F939F93AF93BF93EF93A0
:1000F000FF9384B590E0D2DF81E08093600088B701
:1001000066E070E090E0A6DFFF91EF91BF91AF91C4
:100110009F918F917F916F915F914F913F912F911F
:100120000F900FBE0F901F90189582B563E070E09E
:1001300090E090DF89B767E070E090E08ADF89B7F0
:1001400040E067E070E090E097DF89B766E070E03C
:1001500090E080DF89B741E066E070E090E08CDFFE
:1001600088B766E070E090E075DF84B590E096DFD8
:1001700085B562E070E090E06DDF85B561E070E02C
:1001800090E068DF85B560E070E090E063DF789430
:100190008BDF84B365E070E090E05CDF84B341E026
:1001A00065E070E090E068DF80916000811101C03F
:1001B000FFCF83DF85B78F7785BF85B365E070E0BC
:0E01C00090E049DF10926000EFCFF894FFCF7F
:0201CE0001002E
:00000001FF
