:1000000012C024C023C022C063C020C01FC01EC0B5
:100010001DC01CC01BC01AC019C018C017C016C014
:1000200015C014C013C011241FBECFE5D4E0DEBF3D
:10003000CDBF10E0A0E6B0E0ECE2F2E002C0059037
:100040000D92A236B107D9F770D0EEC0D9CF08957E
:10005000089508950895089521E030E002C0220F28
:10006000331F6A95E2F7A9014823592381E042171B
:10007000530709F080E0089521E030E002C0220F2C
:10008000331F6A95E2F7BC016223732391E0621784
:10009000730709F090E04913FECF0895089585B7DE
:1000A0008F78806385BF089585B78F7885BF089561
:1000B00085B78F78806685BF0895C9DF85B780686A
:1000C00085BFC6DF8895089585B78F7785BF08956A
:1000D0001F920F920FB60F9211242F933F934F93BD
:1000E0005F936F937F938F939F93AF93BF93EF93A0
:1000F000FF9384B590E0D2DF81E08093600088B701
:1001000066E070E090E0A6DFFF91EF91BF91AF91C4
:100110009F918F917F916F915F914F913F912F911F
:100120000F900FBE0F901F90189584B365E070E09C
:1001300090E090DF85B365E070E090E08ADF83E0D7
:100140008A95F1F7000082B563E070E090E082DF0D
:1001500085B365E070E090E07DDF93E09A95F1F77C
:10016000000089B767E070E090E073DF85B365E079
:1001700070E090E06EDF83E08A95F1F7000089B7C8
:1001800066E070E090E066DF85B365E070E090E0E7
:1001900061DF93E09A95F1F7000088B766E070E0C0
:1001A00090E058DF84B590E079DF85B365E070E0DA
:1001B00090E04FDF83E08A95F1F7000085B562E0BB
:1001C00070E090E046DF85B561E070E090E041DFEF
:1001D00085B560E070E090E03DDF789485B365E040
:1001E00070E090E037DF93E09A95F1F700005CDF74
:1001F00080916000811101C0FFCF5FDF85B78F77ED
:1002000085BF85B365E070E090E025DF89EF90E081
:100210000197F1F700C0000085B365E070E090E061
:0C0220001ADF10926000E4CFF894FFCFCA
:02022C000100CF
:00000001FF
