:1000000012C021C020C01FC03AC01DC01CC01BC0F0
:100010001AC019C018C017C016C015C014C013C02C
:1000200012C011C010C011241FBECFE5D4E0DEBF46
:10003000CDBF20E0A0E6B0E001C01D92A236B2071D
:10004000E1F736D080C0DCCF0895089585B78F786A
:10005000806385BF089585B78F7885BF089585B77C
:100060008F78806685BF0895EFDF85B7806885BF8C
:10007000ECDF8895089585B78F7785BF08951F9227
:100080000F920FB60F9211248F939F93F89495B30C
:1000900080E2892785BB81E08093600080936100C6
:1000A00078949F918F910F900FBE0F901F9018958D
:1000B000F89482B5886082BD109260001092610051
:1000C000A59AAD9883ED90E30197F1F700C0000089
:1000D000AD9A83ED90E30197F1F700C00000AD9871
:1000E00089B78F7789BF09B607FCFDCF89B78064D0
:1000F00089BF09B607FEFDCF88B7806488BF08B600
:1001000006FEFDCF14BC82B58770E9F781E085BD9E
:1001100014BC78949BDF85B78F7785BF8091600092
:100120008823E1F3F89480916100882351F01092C4
:10013000610085B7806885BF7894889585B78F778B
:0A01400085BF7894EFCFF894FFCF4D
:00000001FF
