:1000000012C021C020C01FC03AC01DC01CC01BC0F0
:100010001AC019C018C017C016C015C014C013C02C
:1000200012C011C010C011241FBECFE5D4E0DEBF46
:10003000CDBF20E0A0E6B0E001C01D92A236B2071D
:10004000E1F737D079C0DCCF0895089585B78F7870
:10005000806385BF089585B78F7885BF089585B77C
:100060008F78806685BF0895EFDF85B7806885BF8C
:10007000ECDF8895089585B78F7785BF08951F9227
:100080000F920FB60F9211248F939F93F89495B30C
:1000900080E2892785BB14BC81E080936100809356
:1000A000600078949F918F910F900FBE0F901F90DA
:1000B0001895F89482B5886082BD10926100109204
:1000C0006000A59AAD9883ED90E30197F1F700C029
:1000D0000000AD9A83ED90E30197F1F700C00000B6
:1000E000AD98A49AAC9889B78F7789BF89B7806497
:1000F00089BF88B7806488BF14BC83E085BD14BC09
:100100007894A4DF85B78F7785BF809161008823BD
:10011000E1F3F89480916000882361F01092600010
:10012000AC9A85B7806885BF7894889585B78F77B6
:0C01300085BFAC987894EDCFF894FFCF19
:00000001FF
