:1000000012C019C018C017C054C015C014C013C006
:1000100012C011C010C00FC00EC00DC00CC00BC06C
:100020000AC009C008C011241FBECFE5D4E0DEBF5E
:10003000CDBF67D07FC0E4CF0895089521E030E0C0
:1000400002C0220F331F6A95E2F7A9014823592302
:1000500081E04217530709F080E0089521E030E085
:1000600002C0220F331F6A95E2F7BC01622373239B
:1000700091E06217730709F090E04913FECF0895ED
:1000800085B78F78806385BF089585B78F7885BFE2
:10009000089585B78F78806685BF0895CDDF85B7D1
:1000A000806885BFCADF8895089585B78F7785BF3B
:1000B00008951F920F920FB60F9211242F938F93D2
:1000C0009F9314BCAD9A2FE986E891E021508040BF
:1000D0009040E1F700C00000AD982FE38DE093E081
:1000E000215080409040E1F700C0000088B7806454
:1000F00088BF9F918F912F910F900FBE0F901F90EF
:100100001895A59A82B5886082BD89B78F7789BF17
:1001100089B7806489BF88B7806488BF14BC85B5FF
:100120008B7F85BD85B58D7F85BD85B5816085BD9E
:080130007894FFCFF894FFCF93
:00000001FF
